:100000000C944B010C9473010C9473010C947301C8
:100010000C9473010C9473010C9473010C94730190
:100020000C9473010C9473010C9473010C94730180
:100030000C9473010C9473010C9473010C94730170
:100040000C94CA030C9473010C9439030C9413039D
:100050000C9473010C9473010C9473010C94730150
:100060000C9414040C947301036EDB363D9A999939
:10007000993DABAAAA2A3E000000803F084AD73B20
:100080003BCE016E84BCBFFDC12F3D6C74319ABD67
:1000900056833DDA3D00C77F11BED9E4BB4C3E918B
:1000A0006BAAAABE000000803F072C7AA5BA6CC5D7
:1000B00090DA3B9365FC8BBC53F810FD3C56928361
:1000C0004DBD879D3AB63DCBC9BF5BBE73DA0FC944
:1000D0003F07634236B79BD8A71A39685618AEBA9D
:1000E000AB558C1D3CB7CC5763BD6DEDFD753EF631
:1000F000177231BF000000803F08000000BE92244C
:1001000049123EABAAAA2ABECDCCCC4C3E00000080
:1001100080BEABAAAAAA3E00000000BF000000807B
:100120003F0000000000084178D3BB4387D1133D56
:10013000190E3CC3BD4282AD2B3E68EC8276BED91F
:100140008FE1A93E4C80EFFFBE01C4FF7F3F00005E
:100150000000000000407A10F35A00A0724E180907
:100160000010A5D4E80000E87648170000E40B541E
:10017000020000CA9A3B000000E1F50500008096ED
:100180009800000040420F000000A086010000001F
:10019000102700000000E8030000000064000000D9
:1001A00000000A00000000000100000000002C76A2
:1001B000D888DC674F0823DFC1DFAE59E1B1B796BD
:1001C000E5E3E453C63AE651997696E8E6C284261A
:1001D000EB898C9B62ED407C6FFCEFBC9C9F40F2F6
:1001E000BAA56FA5F490055A2AF75C936B6CF96772
:1001F0006DC11BFCE0E40D47FEF520E6B500D0ED37
:10020000902E0300943577050080841E080000209E
:100210004E0A000000C80C333333330F986E12833C
:100220001141EF8D2114893BE65516CFFEE6DB1810
:10023000D1844B381BF77C1D901DA4BBE4242032D5
:1002400084725E228100C9F124ECA1E53D27000003
:100250000000250028002B00040404040404040406
:100260000202020202020303030303030102040861
:100270001020408001020408102001020408102010
:100280000000000800020100000304070000000055
:1002900000000000322011241FBECFEFD8E0DEBFE7
:1002A000CDBF24E0A4E3B2E001C01D92AC36B2079A
:1002B000E1F712E0A0E0B1E0EAE4F6E502C0059063
:1002C0000D92A433B107D9F711E0CBE4D1E004C01B
:1002D0002197FE010E941129CA34D107C9F70E9453
:1002E00049160C94232B0C940000FC01538D448D73
:1002F000252F30E0842F90E0821B930B541710F0D1
:10030000CF96089501970895FC01918D828D9817DD
:1003100061F0828DDF01A80FB11D5D968C91928DE9
:100320009F5F9F73928F90E008958FEF9FEF0895E6
:10033000FC01918D828D981731F0828DE80FF11DAF
:10034000858D90E008958FEF9FEF0895FC01918DCA
:10035000228D892F90E0805C9F4F821B91098F73C3
:100360009927089580EF92E00E94A60121E0892B51
:1003700009F420E0822F0895FC01848DDF01A80F8D
:10038000B11DA35ABF4F2C91848D90E001968F73BD
:100390009927848FA689B7892C93A089B1898C91DC
:1003A00080648C93938D848D981306C00288F389A2
:1003B000E02D80818F7D80830895EF92FF920F93CF
:1003C0001F93CF93DF93EC0181E0888F9B8D8C8D01
:1003D000981305C0E889F989808185FD24C0F62E2F
:1003E0000B8D10E00F5F1F4F0F731127E02E8C8DC8
:1003F000E8120CC00FB607FCFACFE889F9898081B2
:1004000085FFF5CFCE010E94BC01F1CF8B8DFE019F
:10041000E80FF11DE35AFF4FF0820B8FEA89FB8949
:100420008081806207C0EE89FF896083E889F9894D
:1004300080818064808381E090E0DF91CF911F9183
:100440000F91FF90EF900895CF93DF93EC01888D8B
:100450008823C9F0EA89FB89808185FD05C0A889C8
:10046000B9898C9186FD0FC00FB607FCF5CF80814E
:1004700085FFF2CFA889B9898C9185FFEDCFCE0198
:100480000E94BC01E7CFDF91CF91089580E090E01A
:10049000892B29F00E94B20181110C94000008956B
:1004A00085ED8093BC008091BC0084FDFCCF109250
:1004B000EF02089540915602262F30E0240F311D9F
:1004C00021323105DCF42091EF022430C9F4FC0123
:1004D00080E090E0861758F4309156022191DC01BB
:1004E000AC5CBD4FA30FB11D2C930196F3CF80914F
:1004F0005602680F6093560280E0089581E00895E7
:1005000082E008950895E091850280918402E817C1
:1005100030F4F0E0E755FD4F808190E008958FEFD3
:100520009FEF08959091850280918402981750F46E
:10053000E92FF0E0E755FD4F208130E09F5F909379
:10054000850202C02FEF3FEFC90108958091840218
:1005500090E020918502821B91090895CF92DF924D
:10056000EF92FF920F931F93CF93DF937C01262F7F
:10057000972F8A0180918602882391F0C62FD72F6A
:100580006E01C40ED51ECC15DD0571F06991D70141
:10059000ED91FC910190F081E02DC7010995F3CF19
:1005A000642F822F0E945A02C801DF91CF911F91C0
:1005B0000F91FF90EF90DF90CF900895CF93DF934E
:1005C0001F92CDB7DEB76983209186022223D1F036
:1005D0002091A802203240F021E030E0FC0133837A
:1005E000228380E090E015C080918702E82FF0E040
:1005F000E857FD4F998190838F5F809387028093A6
:10060000A80205C061E0CE0101960E945A0281E075
:1006100090E00F90DF91CF910895089580E090E0F1
:1006200008950E940E2B1F920F920FB60F92112465
:100630002F933F934F935F936F937F938F939F93EA
:10064000AF93BF93EF93FF9380EF92E00E94BC01C2
:10065000FF91EF91BF91AF919F918F917F916F919A
:100660005F914F913F912F910F900FBE0F901F9070
:1006700018951F920F920FB60F9211242F938F93FC
:100680009F93EF93FF93E0910003F091010380812A
:10069000E0910603F091070382FD12C090818091E2
:1006A00009038F5F8F7320910A03821751F0E09145
:1006B0000903F0E0E051FD4F958F8093090301C0DD
:1006C0008081FF91EF919F918F912F910F900FBE9D
:1006D0000F901F9018953FB7F89480917C029091ED
:1006E0007D02A0917E02B0917F0226B5A89B05C035
:1006F0002F3F19F00196A11DB11D3FBFBA2FA92FA1
:10070000982F8827820F911DA11DB11DBC01CD011D
:1007100042E0660F771F881F991F4A95D1F7089509
:100720008F929F92AF92BF92CF92DF92EF92FF9201
:100730006B017C010E946B034B015C01C114D1046D
:10074000E104F104F1F00E946B03DC01CB01881994
:100750009909AA09BB09883E9340A105B10570F328
:1007600021E0C21AD108E108F10888EE880E83E082
:10077000981EA11CB11CC114D104E104F10419F7A5
:10078000DDCFFF90EF90DF90CF90BF90AF909F9024
:100790008F9008951F920F920FB60F9211242F93EE
:1007A0003F938F939F93AF93BF93809180029091DB
:1007B0008102A0918202B091830230917B0223E0FA
:1007C000230F2D3720F40196A11DB11D05C026E889
:1007D000230F0296A11DB11D20937B0280938002FE
:1007E00090938102A0938202B093830280917C0255
:1007F00090917D02A0917E02B0917F020196A11D91
:10080000B11D80937C0290937D02A0937E02B093F1
:100810007F02BF91AF919F918F913F912F910F9048
:100820000FBE0F901F9018951F920F920FB60F9248
:1008300011242F933F934F935F936F937F938F93E5
:100840009F93AF93BF93EF93FF938091B900887FFD
:10085000803609F49CC068F5883209F45BC090F4D6
:10086000803109F454C038F4882309F4F6C0883084
:1008700009F44DC0F6C0883109F44CC0803209F447
:100880005DC0EFC0803409F468C048F4803309F4D7
:1008900055C0883309F0E5C08093ED02D8C080359B
:1008A00009F44FC0883509F45DC0883409F0D9C017
:1008B000D6C0883909F4C7C0A8F4883709F467C0DE
:1008C00038F4883609F463C0803709F460C0C9C0C1
:1008D000883809F4B8C0803909F45FC0803809F05D
:1008E000C0C05BC0803B09F486C038F4803A09F48C
:1008F00066C0883A09F47FC0B4C0803C09F4A7C040
:10090000883C09F4A4C0883B09F48AC0AAC080913D
:10091000EA0210C09091EC028091EB02981770F5FA
:10092000E091EC0281E08E0F8093EC02F0E0E7535F
:10093000FD4F80818093BB0085EC86C08093ED02E3
:100940008EC0E091EC0281E08E0F8093EC028091EA
:10095000BB00F0E0E753FD4F80839091EC02809163
:10096000EB026EC0E091EC0281E08E0F8093EC020E
:100970008091BB00F0E0E753FD4F80838091EE0251
:1009800081116DC081E08093E90284EA61C083E057
:100990008093EF0210927A02CFCF80917A02803258
:1009A00008F051C0E0917A0281E08E0F80937A02C4
:1009B0008091BB00F0E0E65AFD4F8083BDCF85EC0F
:1009C0008093BC001092EF0280917A02803230F462
:1009D000E0917A02F0E0E65AFD4F108260917A02CF
:1009E00070E0E0915802F09159028AE592E0099591
:1009F00010927A0236C084E08093EF021092570280
:100A000010925602E0915402F0915502099580919E
:100A10005602811105C081E0809356021092340283
:100A2000E091570281E08E0F80935702F0E0EC5C7A
:100A3000FD4F80818093BB009091570280915602B8
:100A4000981708F479CF85E88093BC000AC085EC3C
:100A50008093BC001092EF0204C01092ED020E943D
:100A60005002FF91EF91BF91AF919F918F917F9134
:100A70006F915F914F913F912F910F900FBE0F900B
:100A80001F9018959091EF029111FCCF91E09093F7
:100A9000EF029093EE022FEF2093ED021092EC0202
:100AA000260F2093EB029093EA029091EA02880FBE
:100AB000892B8093EA028091E902813061F41092DF
:100AC000E9028091EA028093BB008091BC0083FD23
:100AD000F8CF85EC01C085EE8093BC008091EF02D9
:100AE0008130E1F38091EC02861710F46091EC0202
:100AF000A9ECB2E029EA32E0F9018E2F821B8617B9
:100B000018F48D918193F9CF862F0895382F209175
:100B1000A80290915F04213208F049C08091EF0251
:100B20008111FCCF42E04093EF023093EE023FEFA1
:100B30003093ED021092EC022093EB02A8E8B2E0B1
:100B400049EC52E0FA013E2F341B321718F43D9164
:100B50003193F9CF1092EA022091EA02990F922B79
:100B60009093EA029091E902913061F41092E902C7
:100B70009091EA029093BB009091BC0093FDF8CF56
:100B800095EC01C095EE9093BC009091EF029230ED
:100B9000E1F39091ED029F3F79F08091ED02803278
:100BA00041F08091ED02803331F084E005C081E0B6
:100BB00003C082E001C083E0109287021092A80275
:100BC000109286020895DF92EF92FF920F931F9387
:100BD000CF93DF931F92CDB7DEB7F82E890181E066
:100BE00080938602F0925F04109287021092A8020E
:100BF0008DE893E049830E94DE0280E00E94860532
:100C00004981642F413208F060E28F2D0E94420535
:100C1000109285028093840280E03091840290914A
:100C20008502391771F0DD24D394D80E7801E80ECF
:100C3000F11C8DE893E00E949202F70180838D2DD4
:100C4000ECCF0F90DF91CF911F910F91FF90EF901C
:100C5000DF900895CF93C82F81E080938602C093E0
:100C60005F04109287021092A8028DE893E00E9420
:100C7000DE0280E00E94860561E08C2F0E94420522
:100C800010928502809384028DE893E00E94920284
:100C9000CF9108954F925F926F927F928F929F9221
:100CA000AF92BF92CF92DF92EF92FF92CF93DF93FA
:100CB000CDB7DEB7CB57D1090FB6F894DEBF0FBE64
:100CC000CDBF6AE388E60E942A0680FD02C00C942C
:100CD00059149E012F5F3F4F46E06BE388E60E9468
:100CE000E305698170E0762F66278A81682B70930F
:100CF0005804609357048B8190E0982F88272C81AB
:100D00006C01C22AD0925A04C09259048D8190E09D
:100D1000982F88272E817C01E22AF0925C04E092D1
:100D20005B0480919A03813079F048F0823089F039
:100D30008330D9F480E090E0A0E0BAE30EC080E018
:100D400090E0A0E8B8E309C080E090E0A0E0B9E35B
:100D500004C080E090E0A0E8B9E38093EB039093B7
:100D6000EC03A093ED03B093EE038090EB0390901F
:100D7000EC03A090ED03B090EE03072E000C880B5F
:100D8000990B0E94B923A50194010E941824609335
:100D9000F7037093F8038093F9039093FA03B60175
:100DA000DD0C880B990B0E94B923A50194010E94C8
:100DB00018246093FB037093FC038093FD039093CE
:100DC000FE03B701FF0C880B990B0E94B923A50104
:100DD00094010E9418246093FF0370930004809391
:100DE0000104909302049E012F5F3F4F46E063E4AD
:100DF00088E60E94E305698170E0762F66278A8184
:100E0000682B7093E0036093DF038B8190E0982F51
:100E100088272C816C01C22AD092E203C092E103A0
:100E20008D8190E0982F88272E817C01E22AF09214
:100E3000E403E092E30380919903813079F048F074
:100E4000823089F08330D9F480E090E0AAE7BDE3F6
:100E50000EC080E090E0AAEFBBE309C080E090E024
:100E6000AAE7BCE304C080E090E0AAEFBCE3809373
:100E7000EF039093F003A093F103B093F2038090FB
:100E8000EF039090F003A090F103B090F203072ECF
:100E9000000C880B990B0E94B923A50194010E94B4
:100EA00018246093030470930404809305049093C2
:100EB0000604B601DD0C880B990B0E94B923A5012D
:100EC00094010E941824609307047093080480938F
:100ED000090490930A04B701FF0C880B990B0E9438
:100EE000B923A50194010E94182460930B04709308
:100EF0000C0480930D0490930E0462E08CE00E9439
:100F00002A0680FF29C09E012F5F3F4F47E063E024
:100F10008CE00E94E3058F8183FD1EC08A8190E0F2
:100F2000982F88272981822B9093E6038093E503ED
:100F30008C8190E0982F88272B81822B9093E80357
:100F40008093E7038E8190E0982F88272D81822B54
:100F50009093EA038093E90380919B03882339F0FF
:100F6000813089F48FEF9BEEAFEBBFE304C08FEFCE
:100F70009BEEAFEBB0E48093F3039093F403A09364
:100F8000F503B093F603C090F303D090F403E09020
:100F9000F503F090F6036091E5037091E603072EE8
:100FA000000C880B990B0E94B923A70196010E949F
:100FB000182420911B0430911C0440911D04509171
:100FC0001E040E941824209133043091340440916F
:100FD0003504509136040E94182420912704309142
:100FE00028044091290450912A040E940D25609301
:100FF0000F04709310048093110490931204609175
:10100000E7037091E803072E000C880B990B0E94F0
:10101000B923A70196010E94182420911F04309142
:10102000200440912104509122040E941824209110
:101030003704309138044091390450913A040E94A9
:10104000182420912B0430912C0440912D045091B0
:101050002E040E940D256093130470931404809352
:101060001504909316046091E9037091EA03072E2A
:10107000000C880B990B0E94B923A70196010E94CE
:101080001824209123043091240440912504509188
:1010900026040E94182420913B0430913C04409186
:1010A0003D0450913E040E94182420912F04309159
:1010B000300440913104509132040E940D25609318
:1010C0001704709318048093190490931A040E94D3
:1010D0006B036B017C016093DB037093DC038093F3
:1010E000DD039093DE038091D3039091D403A0910C
:1010F000D503B091D603A7019601281B390B4A0BE3
:101100005B0BCA01B9010E94B72320E034E244E737
:1011100059E40E94072624966CAF7DAF8EAF9FAF37
:1011200024976093CB037093CC038093CD0390936B
:10113000CE03C092D303D092D403E092D503F092B1
:10114000D6039B01AC016091CF037091D0038091D5
:10115000D1039091D2030E940E256093CF03709328
:10116000D0038093D1039093D2038091C7039091D1
:10117000C803A091C903B091CA030196A11DB11D76
:101180008093C7039093C803A093C903B093CA0385
:1011900040901704509018046090190470901A043D
:1011A0008090130490901404A0901504B09016043D
:1011B00080910F0490911004A0911104B091120439
:1011C000888B998BAA8BBB8B20910B0430910C04DC
:1011D00040910D0450910E042C8F3D8F4E8F5F8FE8
:1011E0008091030490910404A0910504B091060439
:1011F00088A399A3AAA3BBA3209107043091080454
:101200004091090450910A0428AB39AB4AAB5BAB5F
:101210008091FF0390910004A0910104B091020419
:101220009C01AD01505828962CAF3DAF4EAF5FAF3B
:1012300028978091F7039091F803A091F903B0915A
:10124000FA038CAF9DAFAEAFBFAF2091FB033091DF
:10125000FC034091FD035091FE0328AF39AF4AAF24
:101260005BAF8091A9039091AA03A091AB03B091C9
:10127000AC038CA39DA3AEA3BFA32091AD0330917B
:10128000AE034091AF035091B003288F398F4A8F3E
:101290005B8F8091B1039091B203A091B303B091A1
:1012A000B4038C879D87AE87BF872091B5033091AB
:1012B000B6034091B7035091B803288739874A870E
:1012C0005B8728AD39AD4AAD5BADCA01B9010E945B
:1012D00018246B017C012CAD3DAD4EAD5FADCA0154
:1012E000B9010E9418249B01AC01C701B6010E94FC
:1012F0000E256B017C0128962CAD3DAD4EAD5FAD4A
:101300002897CA01B9010E9418249B01AC01C701AA
:10131000B6010E940E250E9466276C8B7D8B8E8BFA
:101320009F8B20E030E0A9010E94B223882311F4B2
:101330000C943013288939894A895B89CA01B9011B
:101340000E9418246B017C01A5019401C501B40120
:101350000E9418249B01AC01C701B6010E940E2512
:101360006B017C01A3019201C301B2010E94182408
:101370009B01AC01C701B6010E940E250E946627A1
:101380006B017C0120E030E0A9010E94B223882398
:1013900011F40C9430136C8D7D8D8E8D9F8D905833
:1013A00025E33AEF4EE85CE30E941824A8966CAF60
:1013B0007DAF8EAF9FAFA89725E33AEF4EE85CE391
:1013C00068A179A18AA19BA10E941824AC966CAF58
:1013D0007DAF8EAF9FAFAC9725E33AEF4EE85CE36D
:1013E00068A979A98AA99BA90E941824E0966CAFE4
:1013F0007DAF8EAF9FAFE0972CA13DA14EA15FA125
:10140000CA01B9010E940E2568AB79AB8AAB9BABD0
:10141000288D398D4A8D5B8DCA01B9010E940E2538
:1014200064966CAF7DAF8EAF9FAF64972C853D8582
:101430004E855F85CA01B9010E940E2568966CAF82
:101440007DAF8EAF9FAF6897288539854A855B85CC
:10145000CA01B9010E940E25E8966CAF7DAF8EAF30
:101460009FAFE8972CA13DA14EA15FA1CA01B90190
:101470000E9418242C966CAF7DAF8EAF9FAF2C9737
:10148000288D398D4A8D5B8D6CA17DA18EA19FA188
:101490000E94182460966CAF7DAF8EAF9FAF6097AF
:1014A0002C853D854E855F856CA17DA18EA19FA178
:1014B0000E941824EC966CAF7DAF8EAF9FAFEC9777
:1014C000288D398D4A8D5B8DCA01B9010E9418247F
:1014D0006CA77DA78EA79FA7288539854A855B8540
:1014E000688D798D8A8D9B8D0E94182468A779A7B5
:1014F0008AA79BA72C853D854E855F85CA01B901CA
:101500000E9418246C8F7D8F8E8F9F8F2885398540
:101510004A855B85CA01B9010E9418246CAB7DAB7A
:101520008EAB9FAB2C893D894E895F8960E070E06E
:1015300080E89FE30E940726E4966CAF7DAF8EAFF4
:101540009FAFE497A701960160E070E080E89FE319
:101550000E9407266B017C019B01AC016889798997
:101560008A899B890E94182468A379A38AA39BA3D4
:10157000A7019601C501B4010E9418246C8B7D8BD4
:101580008E8B9F8BA7019601C301B2010E94182484
:101590002B013C0128A139A14AA15BA168A979A925
:1015A0008AA99BA90E9418246C966CAF7DAF8EAF60
:1015B0009FAF6C972C893D894E895F8968A979A96D
:1015C0008AA99BA90E941824A0966CAF7DAF8EAF0C
:1015D0009FAFA097A301920168A979A98AA99BA9A5
:1015E0000E9418244B015C0128A139A14AA15BA1EA
:1015F00064966CAD7DAD8EAD9FAD64970E9418244E
:10160000A4966CAF7DAF8EAF9FAFA4972C962CADF8
:101610003DAD4EAD5FAD2C9768A179A18AA19BA18C
:101620000E9418246B017C01288539854A855B85D9
:10163000A0966CAD7DAD8EAD9FADA0970E94182495
:101640009B01AC01C701B6010E940D256B017C0115
:101650002C853D854E855F85C501B4010E94182407
:101660009B01AC01C701B6010E940E256B017C01F4
:101670002CA53DA54EA55FA568A179A18AA19BA136
:101680000E9418249B01AC01C701B6010E940E25DF
:101690006B017C012C893D894E895F8964966CAD14
:1016A0007DAD8EAD9FAD64970E9418242C853D853D
:1016B0004E855F850E9418249B01AC01C701B601CD
:1016C0000E940E256B017C01A301920164966CAD12
:1016D0007DAD8EAD9FAD64970E9418242885398515
:1016E0004A855B850E9418249B01AC01C701B601A5
:1016F0000E940E256B017C012C8D3D8D4E8D5F8DE2
:1017000068A179A18AA19BA10E9418249B01AC0128
:10171000C701B6010E940D256B017C012CA93DA9D2
:101720004EA95FA968A179A18AA19BA10E94182452
:101730009B01AC01C701B6010E940D256B017C0124
:10174000288539854A855B856C966CAD7DAD8EADFF
:101750009FAD6C970E941824688B798B8A8B9B8B2A
:101760002C962CAD3DAD4EAD5FAD2C976C897D892F
:101770008E899F890E9418249B01AC016889798910
:101780008A899B890E940E25688B798B8A8B9B8B1B
:10179000288D398D4A8D5B8DC501B4010E941824B6
:1017A0009B01AC01688979898A899B890E940D25F2
:1017B0004B015C012C853D854E855F85A4966CAD03
:1017C0007DAD8EAD9FADA4970E9418249B01AC0106
:1017D000C501B4010E940E254B015C012CA53DA55D
:1017E0004EA55FA56C897D898E899F890E941824EA
:1017F0009B01AC01C501B4010E940D254B015C01A8
:101800002C8D3D8D4E8D5F8D6C897D898E899F8954
:101810000E9418249B01AC01C501B4010E940E2551
:101820004B015C01A301920168966CAD7DAD8EAD5C
:101830009FAD68970E941824288539854A855B8565
:101840000E9418249B01AC01C501B4010E940E2521
:101850004B015C012CA93DA94EA95FA96C897D892A
:101860008E899F890E9418249B01AC01C501B40197
:101870000E940D254B015C01A7019601C701B6012D
:101880000E9418246B017C01A5019401C501B401DB
:101890000E9418249B01AC01C701B6010E940E25CD
:1018A0000E946627688B798B8A8B9B8B6C966CADBC
:1018B0007DAD8EAD9FAD6C9790582C853D854E8546
:1018C0005F850E9418246B017C01288D398D4A8D1B
:1018D0005B8DA0966CAD7DAD8EAD9FADA0970E9447
:1018E00018249B01AC01C701B6010E940E256B01B3
:1018F0007C012C962CAD3DAD4EAD5FAD2C97C30158
:10190000B2010E9418249B01AC01C701B6010E94DC
:101910000E256B017C01288539854A855B85A49657
:101920006CAD7DAD8EAD9FADA4970E9418249B0138
:10193000AC01C701B6010E940E256B017C012CA5EC
:101940003DA54EA55FA5C301B2010E9418249B01CD
:10195000AC01C701B6010E940D256B017C012C89E9
:101960003D894E895F8968966CAD7DAD8EAD9FAD2A
:1019700068970E941824288539854A855B850E94CE
:1019800018249B01AC01C701B6010E940E256B0112
:101990007C012C8D3D8D4E8D5F8DC301B2010E9467
:1019A00018249B01AC01C701B6010E940D256B01F3
:1019B0007C012CA93DA94EA95FA9C301B2010E94D7
:1019C00018249B01AC01C701B6010E940E254B01F2
:1019D0005C019B01AC010E940E256C966CAF7DAF43
:1019E0008EAF9FAF6C9728A539A54AA55BA5CA0104
:1019F000B9010E940E256B017C012C853D854E8529
:101A00005F8568A979A98AA99BA90E9418249B01CE
:101A1000AC01C701B6010E940D256B017C01E49663
:101A20002CAD3DAD4EAD5FADE49768AD79AD8AADFF
:101A30009BAD0E9418249B01AC01C701B6010E9416
:101A40000D2568AF79AF8AAF9BAF60962CAD3DADE9
:101A50004EAD5FAD6097CA01B9010E940E256B01C2
:101A60007C01288539854A855B8568966CAD7DAD9E
:101A70008EAD9FAD68970E9418249B01AC01C701F1
:101A8000B6010E940E256B017C01E4962CAD3DADA4
:101A90004EAD5FADE4976CAD7DAD8EAD9FAD0E9458
:101AA00018249B01AC01C701B6010E940D256CAF43
:101AB0007DAF8EAF9FAF2C853D854E855F85C5017F
:101AC000B4010E941824A0966CAF7DAF8EAF9FAF7B
:101AD000A0972C8D3D8D4E8D5F8D60E070E080E095
:101AE0009FE30E940D252CA93DA94EA95FA90E9444
:101AF0000D259B01AC01688979898A899B890E949F
:101B000018246B017C01EC962CAD3DAD4EAD5FAD64
:101B1000EC9768A579A58AA59BA50E940D259B0138
:101B2000AC01C501B4010E9418249B01AC01C7019E
:101B3000B6010E940E2528A139A14AA15BA10E94ED
:101B40000D2568A379A38AA39BA388899989AA896B
:101B5000BB89B0582C968CAF9DAFAEAFBFAF2C9762
:101B6000288D398D4A8D5B8DC501B4010E941824E2
:101B7000A4966CAF7DAF8EAF9FAFA4972C853D85AB
:101B80004E855F85688D798D8A8D9B8D0E94182486
:101B90006B017C01288539854A855B856CA17DA117
:101BA0008EA19FA10E9418249B01AC01C701B60120
:101BB0000E940D259B01AC01688979898A899B89DE
:101BC0000E9418246B017C01288539854A855B8534
:101BD0006C857D858E859F850E9418249B01AC01B4
:101BE00060966CAD7DAD8EAD9FAD60970E940E2569
:101BF0009B01AC01C501B4010E9418249B01AC01FA
:101C0000C701B6010E940E252C893D894E895F8946
:101C10000E940D256C8B7D8B8E8B9F8B2C853D853B
:101C20004E855F85688979898A899B890E941824F5
:101C30006B017C0128A539A54AA55BA5EC966CAD86
:101C40007DAD8EAD9FADEC970E940E259B01AC0142
:101C5000688979898A899B890E94182468A779A74D
:101C60008AA79BA72CA53DA54EA55FA560E070E0C7
:101C700080E09FE30E940D252C8D3D8D4E8D5F8D64
:101C80000E940D259B01AC01C501B4010E941824DE
:101C90009B01AC0168A579A58AA59BA50E940E258C
:101CA000A30192010E940D2568A779A78AA79BA787
:101CB00068966CAD7DAD8EAD9FAD6897905828ADA0
:101CC00039AD4AAD5BAD0E9418242B013C012CAD0F
:101CD0003DAD4EAD5FAD64966CAD7DAD8EAD9FAD4F
:101CE00064970E9418249B01AC01C301B2010E94B9
:101CF0000E252B013C0128A139A14AA15BA1A09688
:101D00006CAD7DAD8EAD9FADA0970E9418249B0158
:101D1000AC01C301B2010E940D252B013C012885B5
:101D200039854A855B852C966CAD7DAD8EAD9FADBA
:101D30002C970E941824A4962CAD3DAD4EAD5FADFE
:101D4000A4970E940E252C893D894E895F890E94A7
:101D500018249B01AC01C301B2010E940E252B0186
:101D60003C0128A539A54AA55BA5C701B6010E947B
:101D700018249B01AC01C301B2010E940E256CAB7B
:101D80007DAB8EAB9FAB2CA53DA54EA55FA5CA0133
:101D9000B9010E940E259B01AC0160E070E080E873
:101DA0009FE30E940D252B013C012C8D3D8D4E8D16
:101DB0005F8DCA01B9010E940E259B01AC01C301D0
:101DC000B2010E940D252B013C01E4962CAD3DADE6
:101DD0004EAD5FADE49728966CAD7DAD8EAD9FADF9
:101DE00028970E9418249B01AC01C301B2010E94F4
:101DF0000D252B013C01288539854A855B85C50168
:101E0000B4010E94182428966CAF7DAF8EAF9FAFAF
:101E100028972CA13DA14EA15FA1C501B4010E944C
:101E2000182460966CAF7DAF8EAF9FAF609728ADE2
:101E300039AD4AAD5BADE8966CAD7DAD8EAD9FAD75
:101E4000E8970E9418244B015C012CAD3DAD4EADCE
:101E50005FAD68A979A98AA99BA90E9418249B0152
:101E6000AC01C501B4010E940E254B015C0120E0CC
:101E700030E040E850E4688D798D8A8D9B8D0E941A
:101E80001824A30192010E9418249B01AC01C501F2
:101E9000B4010E940D254B015C0128A139A14AA182
:101EA0005BA128966CAD7DAD8EAD9FAD28970E944D
:101EB00018249B01AC01C501B4010E940E254B0101
:101EC0005C0160962CAD3DAD4EAD5FAD6097C70136
:101ED000B6010E940E252C893D894E895F890E949A
:101EE00018249B01AC01C501B4010E940E256B01B1
:101EF0007C01288539854A855B85688979898A8945
:101F00009B890E9418244B015C01288D398D4A8DD4
:101F10005B8D6C966CAD7DAD8EAD9FAD6C970E9468
:101F200018249B01AC01C501B4010E940D2528A510
:101F300039A54AA55BA50E9418249B01AC01C701E5
:101F4000B6010E940E256C8F7D8F8E8F9F8F288902
:101F500039894A895B89CA01B9010E940E259B0112
:101F6000AC0150582CA73DA74EA75FA7288D398DEF
:101F70004A8D5B8D688979898A899B890E9418249A
:101F80006B017C0168A979A98AA99BA9905828AD01
:101F900039AD4AAD5BAD0E9418244B015C012CADFC
:101FA0003DAD4EAD5FADE8966CAD7DAD8EAD9FADF8
:101FB000E8970E9418249B01AC01C501B4010E945E
:101FC0000E254B015C0120E030E040E850E46C85D8
:101FD0007D858E859F850E941824A30192010E9411
:101FE00018249B01AC01C501B4010E940D254B01D1
:101FF0005C012C853D854E855F856CA57DA58EA5F4
:102000009FA50E94182460962CAD3DAD4EAD5FADEE
:1020100060970E940D2528A139A14AA15BA10E94C9
:1020200018249B01AC01C501B4010E940E254B018F
:102030005C0128962CAD3DAD4EAD5FAD2897C70134
:10204000B6010E940E252C893D894E895F890E9428
:1020500018249B01AC01C501B4010E940E254B015F
:102060005C012CA13DA14EA15FA1688979898A8973
:102070009B890E9418242B013C012C853D854E85AF
:102080005F856C966CAD7DAD8EAD9FAD6C970E94FB
:1020900018249B01AC01C301B2010E940D2528A5A3
:1020A00039A54AA55BA50E9418249B01AC01C50176
:1020B000B4010E940E252B013C0128AD39AD4AAD7B
:1020C0005BAD64966CAD7DAD8EAD9FAD64970E94A7
:1020D00018244B015C012CAD3DAD4EAD5FAD689653
:1020E0006CAD7DAD8EAD9FAD68970E9418249B01AD
:1020F000AC01C501B4010E940E254B015C0128858D
:1021000039854A855B856CA57DA58EA59FA50E9416
:102110001824A4962CAD3DAD4EAD5FADA4970E94A2
:102120000E2528A139A14AA15BA10E9418249B0178
:10213000AC01C501B4010E940E254B015C012CA12C
:102140003DA14EA15FA12C966CAD7DAD8EAD9FAD36
:102150002C970E941824A0962CAD3DAD4EAD5FADDE
:10216000A0970E940E252C893D894E895F890E9487
:1021700018249B01AC01C501B4010E940E254B013E
:102180005C0128A539A54AA55BA5C701B6010E9437
:1021900018249B01AC01C501B4010E940E256C8B73
:1021A0007D8B8E8B9F8B2CA93DA94EA95FA9CA015F
:1021B000B9010E9418246B017C012C8D3D8D4E8D40
:1021C0005F8DCA01B9010E9418249B01AC01C701AF
:1021D000B6010E940E256B017C01A3019201C3018F
:1021E000B2010E9418249B01AC01C701B6010E94F4
:1021F0000E256B017C012C893D894E895F89CA01BE
:10220000B9010E9418249B01AC01C701B6010E94CC
:102210000E250E9466279B01AC0160E070E080E81B
:102220009FE30E9407264B015C018091640490911A
:102230006504A0916604B0916704888B998BAA8B82
:10224000BB8B688D798D8A8D9B8D9058E0962CADD7
:102250003DAD4EAD5FADE0970E9418246B017C014F
:10226000AC962CAD3DAD4EAD5FADAC976C857D852C
:102270008E859F850E9418249B01AC01C701B60181
:102280000E940D256B017C01A8962CAD3DAD4EAD95
:102290005FADA897688579858A859B850E941824FB
:1022A0009B01AC01C701B6010E940D2520E030E082
:1022B00040E05FE30E9418246B017C01A5019401BA
:1022C0006CA97DA98EA99FA90E9418249B01AC012D
:1022D000688979898A899B890E9418249B01AC01AD
:1022E000C701B6010E940D2524962CAD3DAD4EAD23
:1022F0005FAD24970E9418249B01AC016CA17DA1C5
:102300008EA19FA10E940E2568A379A38AA39BA3F7
:10231000E0962CAD3DAD4EAD5FADE0976CA17DA1DB
:102320008EA19FA10E9418246B017C01A8962CAD60
:102330003DAD4EAD5FADA8976C857D858E859F8543
:102340000E9418249B01AC01C701B6010E940E2512
:102350006B017C01AC962CAD3DAD4EAD5FADAC9745
:10236000688579858A859B850E9418249B01AC012C
:10237000C701B6010E940D2520E030E040E05FE398
:102380000E9418246B017C01A50194016C8D7D8D48
:102390008E8D9F8D0E9418249B01AC0168897989DC
:1023A0008A899B890E9418249B01AC01C701B60150
:1023B0000E940D2524962CAD3DAD4EAD5FAD24970A
:1023C0000E9418249B01AC01688D798D8A8D9B8DAC
:1023D0000E940E256C8F7D8F8E8F9F8FAC962CADBB
:1023E0003DAD4EAD5FADAC976CA17DA18EA19FA11F
:1023F0000E9418246B017C01A8962CAD3DAD4EAD1A
:102400005FADA897688D798D8A8D9B8D0E94182469
:102410009B01AC01C701B6010E940D256B017C0137
:10242000E0962CAD3DAD4EAD5FADE097688579850A
:102430008A859B850E9418249B01AC01C701B601C7
:102440000E940E2520E030E040E05FE30E94182467
:102450006B017C01A5019401C301B2010E94182403
:102460009B01AC01688979898A899B890E9418241B
:102470009B01AC01C701B6010E940D2524962CAD2D
:102480003DAD4EAD5FAD24970E9418249B01AC0179
:102490006C857D858E859F850E940E252B013C01D4
:1024A000A8962CAD3DAD4EAD5FADA8976CA17DA1BA
:1024B0008EA19FA10E9418246B017C01AC962CADCB
:1024C0003DAD4EAD5FADAC97688D798D8A8D9B8D9E
:1024D0000E9418249B01AC01C701B6010E940E2581
:1024E0006B017C01E0962CAD3DAD4EAD5FADE0974C
:1024F0006C857D858E859F850E9418249B01AC018B
:10250000C701B6010E940D2520E030E040E05FE306
:102510000E9418246B017C01A50194016C897D89BE
:102520008E899F890E9418249B01AC016889798952
:102530008A899B890E9418249B01AC01C701B601BE
:102540000E940D2524962CAD3DAD4EAD5FAD249778
:102550000E9418249B01AC01688579858A859B853A
:102560000E940E254B015C0128A139A14AA15BA163
:10257000CA01B9010E9418246B017C012C8D3D8D8C
:102580004E8D5F8DCA01B9010E9418249B01AC01D8
:10259000C701B6010E940E256B017C01A3019201C7
:1025A000C301B2010E9418249B01AC01C701B6010E
:1025B0000E940E256B017C01A5019401C501B401A7
:1025C0000E9418249B01AC01C701B6010E940E2590
:1025D0000E9466279B01AC0160E070E080E89FE309
:1025E0000E9407266B017C019B01AC0168A179A1C7
:1025F0008AA19BA10E9418246093A9037093AA0347
:102600008093AB039093AC03A70196016C8D7D8DF5
:102610008E8D9F8D0E9418246093AD037093AE033E
:102620008093AF039093B003A7019601C301B20159
:102630000E9418246093B1037093B2038093B30394
:102640009093B403A7019601C501B4010E94182418
:102650006093B5037093B6038093B7039093B80368
:102660002091A9033091AA034091AB035091AC0390
:10267000288739874A875B87CA01B9010E941824D5
:10268000688F798F8A8F9B8F8091AD039091AE0375
:10269000A091AF03B091B0038C879D87AE87BF87B1
:1026A0009C01AD01BC01CD010E9418246CA37DA347
:1026B0008EA39FA34090B1035090B2036090B303E8
:1026C0007090B403A3019201C301B2010E941824C7
:1026D000688B798B8A8B9B8B8090B5039090B60327
:1026E000A090B703B090B803A5019401C501B4014F
:1026F0000E9418246C8B7D8B8E8B9F8B2CA13DA10F
:102700004EA15FA1688D798D8A8D9B8D0E940E25CB
:10271000288939894A895B890E940D252C893D8940
:102720004E895F890E940D256B017C01A3019201F6
:102730006C857D858E859F850E9418246C8F7D8F8A
:102740008E8F9F8FA5019401688579858A859B85E9
:102750000E9418249B01AC016C8D7D8D8E8D9F8D08
:102760000E940E259B01AC010E940E25A701960137
:102770000E94A8256C8F7D8F8E8F9F8FA50194015D
:102780006C857D858E859F850E9418246B017C0158
:10279000A3019201688579858A859B850E9418240A
:1027A0009B01AC01C701B6010E940D259B01AC0144
:1027B0000E940E250E947A256B017C012CA13DA16F
:1027C0004EA15FA1688D798D8A8D9B8D0E940D250C
:1027D000288939894A895B890E940D252C893D8980
:1027E0004E895F890E940E25688F798F8A8F9B8F13
:1027F0002C853D854E855F85688579858A859B8595
:102800000E941824688779878A879B87A50194018D
:10281000C301B2010E9418249B01AC01688579852F
:102820008A859B850E940E259B01AC010E940E2586
:10283000288D398D4A8D5B8D0E94A8254B015C0146
:10284000C701B601905821EE3EE245E652E40E94EF
:10285000182460939D0370939E0380939F0390932D
:10286000A00321EE3EE245E652E4C501B4010E9418
:1028700018246093A5037093A6038093A7039093F5
:10288000A80321EE3EE245E652E46C8D7D8D8E8DEF
:102890009F8D0E9418242DEC3CEC4CE450E40E94E7
:1028A0000D256093A1037093A2038093A3039093DB
:1028B000A403C558DF4F0FB6F894DEBF0FBECDBFDF
:1028C000DF91CF91FF90EF90DF90CF90BF90AF90CE
:1028D0009F908F907F906F905F904F900895CF93CF
:1028E000DF931F92CDB7DEB791E09093860280937D
:1028F0005F04109287021092A8028DE893E049834A
:102900000E94DE024981642F8DE893E00E94DE027E
:1029100081E00F90DF91CF910C94860590E0FC014F
:10292000E058FD4F2491FC01E459FD4F3491FC0126
:10293000E85AFD4FE491EE23B1F1222339F123301F
:1029400091F038F42130A9F0223001F584B58F7D63
:1029500012C0273091F02830A1F02430B9F48091D2
:1029600080008F7D03C0809180008F7780938000EE
:102970000DC084B58F7784BD09C08091B0008F777A
:1029800003C08091B0008F7D8093B000F0E0EE0F27
:10299000FF1FE25BFD4FA591B4918FB7F894EC91C6
:1029A0003E2B3C938FBF08950F931F93CF93DF93DC
:1029B000EC010C811D810F5F1F4FB8010E94511562
:1029C000882369F0288139818C819D8161E372E0DF
:1029D000820F931F0E941C2B1D830C8303C0CE010A
:1029E0000E947815CE01DF91CF911F910F9108952C
:1029F000EF92FF920F931F93CF93DF93FC012481FB
:102A000035816115710511F480E019C0411551053A
:102A1000A9F07B01EC018A01020F131FB8010E948B
:102A20005115882389F3288139818C819D81B701D3
:102A3000820F931F0E941C2B1D830C8381E0DF916A
:102A4000CF911F910F91FF90EF900895CF92DF9259
:102A5000EF92FF920F931F93CF93DF936C017A0154
:102A60008B01C0E0D0E0CE15DF0589F0D8016D9173
:102A70008D01D601ED91FC910190F081E02DC60110
:102A80000995892B11F47E0102C02196ECCFC70174
:102A9000DF91CF911F910F91FF90EF90DF90CF903A
:102AA00008950F931F93CF93DF93EC018881998151
:102AB000009729F02A813B812617370788F48B017C
:102AC0006F5F7F4F0E94442A009761F0998388834B
:102AD0001B830A832C813D81232B11F4FC0110827E
:102AE00081E001C080E0DF91CF911F910F910895A7
:102AF000CF93DF93EC0188819981009711F00E94B8
:102B0000AC29198218821D821C821B821A82DF91D5
:102B1000CF910895CF92DF92EF92FF920F931F9380
:102B2000CF93DF93CDB7DEB7A1970FB6F894DEBF92
:102B30000FBECDBF7C01CB01BA01F701118210821B
:102B4000138212821582148242E0420F8E010F5FBF
:102B50001F4F0E942C216C01009771F0FC01019025
:102B60000020E9F731978F01081B190BB801C70145
:102B70000E945115811104C0C7010E94781508C038
:102B8000F70115830483B601808191810E941C2B7B
:102B9000A1960FB6F894DEBF0FBECDBFDF91CF91E7
:102BA0001F910F91FF90EF90DF90CF9008956115E6
:102BB000710579F0FB0101900020E9F73197AF0131
:102BC000461B570BDC01ED91FC910280F381E02D57
:102BD000099480E090E008954F925F926F927F9207
:102BE000EF92FF920F931F93CF93DF93CDB7DEB792
:102BF000A1970FB6F894DEBF0FBECDBF7C01FA01DE
:102C0000CB0119A2223008F42AE08E010F5D1F4F7C
:102C1000422E512C612C712CBF01A30192010E9404
:102C2000D028F901CA01015011096A3014F4605D1D
:102C300001C0695CD8016C93232B242B252B61F7F1
:102C4000B801C7010E94D715A1960FB6F894DEBF50
:102C50000FBECDBFDF91CF911F910F91FF90EF90ED
:102C60007F906F905F904F9008950F931F93CF9335
:102C7000DF93EC010E94D7158C016DE571E0CE0168
:102C80000E94D715800F911FDF91CF911F910F9157
:102C90000895CF93DF93CDB7DEB7C058D1090FB6F3
:102CA000F894DEBF0FBECDBF789484B5826084BD3A
:102CB00084B5816084BD85B5826085BD85B5816040
:102CC00085BD80916E00816080936E0010928100BE
:102CD0008091810082608093810080918100816079
:102CE000809381008091800081608093800080913A
:102CF000B10084608093B1008091B00081608093C6
:102D0000B00080917A00846080937A0080917A008C
:102D1000826080937A0080917A00816080937A004B
:102D200080917A00806880937A001092C10010929E
:102D3000850210928402109287021092A8021092CB
:102D4000EF0281E08093EE021092E90282E10E949C
:102D50008E1483E10E948E148091B9008E7F80933F
:102D6000B9008091B9008D7F8093B90088E4809389
:102D7000B80085E48093BC00E0910003F09101036A
:102D800082E08083E091FC02F091FD021082E091EC
:102D9000FE02F091FF0280E1808310920803E0912F
:102DA0000403F091050316E01083E0910203F09113
:102DB0000303808180618083E0910203F09103032B
:102DC000808188608083E0910203F0910303808119
:102DD00080688083E0910203F091030380818F7DFE
:102DE000808380EF92E090935E0480935D0466E3BD
:102DF00071E00E94351665E788E60E942A06F82EE3
:102E000080915D0490915E0421E7F216B9F06CE3C5
:102E100071E00E94D71500915D0410915E044F2D62
:102E200050E060E070E020E1C8010E94EC156DE523
:102E300071E0C8010E94D7150C945F1F60E671E035
:102E40000E9435166E0131E6C30ED11CD6011D92CB
:102E50001A95E9F77E01B5E5EB0EF11C8CE0F70160
:102E6000282F11922A95E9F75E0139E4A30EB11CCF
:102E7000D501E82F1D92EA95E9F78E01035C1F4FFB
:102E8000D801E82F1D92EA95E9F73E01F1E36F0EB4
:102E9000711CD3011D928A95E9F740E069E188E64B
:102EA0000E946F1442E06AE188E60E946F1440E0DD
:102EB0006BE188E60E946F1442E06DE188E60E94B3
:102EC0006F1440E06CE188E60E946F1478EC872E66
:102ED000912C960146E06BE388E60E94E305F6013B
:102EE000808190E0982F88272181822B092E000C69
:102EF000AA0BBB0BF5014081518162817381840F64
:102F0000951FA61FB71F80839183A283B383D60129
:102F100012968C91129790E0982F882713962C91F7
:102F2000822B092E000CAA0BBB0B448155816681B4
:102F30007781840F951FA61FB71F84839583A6836F
:102F4000B783D60114968C91149790E0982F882718
:102F500015962C91822B092E000CAA0BBB0B4085D9
:102F6000518562857385840F951FA61FB71F8087C3
:102F70009187A287B387960146E063E488E60E94C2
:102F8000E305D6018C9190E0982F882711962C911B
:102F9000822B092E000CAA0BBB0BF701408151813B
:102FA00062817381840F951FA61FB71F8083918351
:102FB000A283B383D60112968C91129790E0982F3A
:102FC000882713962C91822B092E000CAA0BBB0B81
:102FD0004481558166817781840F951FA61FB71F95
:102FE00084839583A683B783D60114968C91149716
:102FF00090E0982F882715962C91822B092E000C93
:10300000AA0BBB0B4085518562857385840F951F84
:10301000A61FB71F80879187A287B387F1E08F1A19
:10302000910809F056CFAF96BFAEAEAEAF97E3961C
:10303000FFAEEEAEE39775012CE0E20EF11CE396D5
:103040008EAC9FACE397F8EC2F2E312C412C512CF9
:10305000D5016D917D918D919C91A20191010E946C
:10306000F228F50121933193419351935F01D401EB
:103070006D917D918D919C91A20191010E94F22808
:10308000F40121933193419351934F01AE14BF0446
:10309000F9F640EE6CE188E60E946F1440EE6BE1B9
:1030A00088E60E946F1469E170E080E090E00E9481
:1030B0009003E8ECEE2EF12C960146E06BE388E6F7
:1030C0000E94E305D6018C9190E0982F88271196F5
:1030D0002C91822B092E000CAA0BBB0BF80140810E
:1030E000518162817381840F951FA61FB71F808352
:1030F0009183A283B383D60112968C91129790E0AC
:10310000982F882713962C91822B092E000CAA0B3E
:10311000BB0B25964CAD5DAD6EAD7FAD2597840F95
:10312000951FA61FB71F25968CAF9DAFAEAFBFAF43
:103130002597F601848190E0982F88272581822B9E
:10314000092E000CAA0BBB0B29964CAD5DAD6EADE4
:103150007FAD2997840F951FA61FB71F29968CAFA7
:103160009DAFAEAFBFAF2997960146E063E488E616
:103170000E94E305D6018C9190E0982F8827119644
:103180002C91822B092E000CAA0BBB0B49A95AA922
:103190006BA97CA9840F951FA61FB71F89AB9AAB9B
:1031A000ABABBCABF601828190E0982F88272381DE
:1031B000822B092E000CAA0BBB0B4DA95EA96FA98F
:1031C00078AD840F951FA61FB71F8DAB9EABAFAB1D
:1031D000B8AF848190E0982F88272581822B092E13
:1031E000000CAA0BBB0B49AD5AAD6BAD7CAD840F87
:1031F000951FA61FB71F89AF9AAFABAFBCAFF1E069
:10320000EF1AF10809F058CF730148012CE0820E43
:10321000911C53016801A8EC4A2E512C612C712C91
:10322000D6016D917D918D919C91A30192010E9497
:10323000F228F60121933193419351936F01D50107
:103240006D917D918D919C91A30192010E94F22834
:10325000F50121933193419351935F01C814D9042F
:10326000F9F640E06CE188E60E946F1440E06BE103
:1032700088E60E946F1469E170E080E090E00E94AF
:1032800090036DE088E60E942A06A82E6EE088E68C
:103290000E942A06B82E6FE088E60E942A06C82EF1
:1032A00060E088E60E942A06D82E61E088E60E9447
:1032B0002A06882E62E088E60E942A06982E6A2D49
:1032C00070E080E090E00E94B72320E030E040E82A
:1032D0005FE30E940D259B01AC016EEA77E481E873
:1032E0009FE30E94102720E030EC43E255E40E9467
:1032F0001824698F7A8F8B8F9C8F6B2D70E080E004
:1033000090E00E94B72320E030E040E85FE30E94B5
:103310000D259B01AC016EEA77E481E89FE30E94F2
:10332000102720E030EC43E255E40E9418246D8F12
:103330007E8F8F8F98A36C2D70E080E090E00E94CC
:10334000B72320E030E040E85FE30E940D259B01B9
:10335000AC016EEA77E481E89FE30E94102720E049
:1033600030EC43E255E40E94182469A37AA38BA3AE
:103370009CA36D2D70E080E090E00E94B72320E0D8
:1033800030E040E85FE30E940D259B01AC016EEA4E
:1033900077E481E89FE30E94102720E030EC43E2CD
:1033A00055E40E9418246DA37EA38FA398A7682DCF
:1033B00070E080E090E00E94B72320E030E040E839
:1033C0005FE30E940D259B01AC016EEA77E481E882
:1033D0009FE30E94102720E030EC43E255E40E9476
:1033E000182469A77AA78BA79CA7692D70E080E0B5
:1033F00090E00E94B72320E030E040E85FE30E94C5
:103400000D259B01AC016EEA77E481E89FE30E9401
:10341000102720E030EC43E255E40E9418246DA709
:103420007EA78FA798AB6E01F9E1CF0ED11C9E014C
:103430002F5F3F4F59014901F3E06F2E712C31E0AE
:10344000AA963FAFAA97A996DFAECEAEA997F8018C
:1034500081919191A191B1918F01AF96EEADFFADA8
:10346000AF972191319141915191AF96FFAFEEAF5E
:10347000AF97BC01CD01621B730B840B950B0E94AF
:10348000B92320E030E048EC52E40E941824D60131
:103490002D913D914D915C910E94072620E030E0F6
:1034A00048EC52E40E940D25F4016083718382830D
:1034B000938320E030E048E452EC0E94B2231816D7
:1034C0001CF0AA961FAEAA97F70181919191A19144
:1034D000B1917F01E396EEADFFADE397219131917C
:1034E00041915191E396FFAFEEAFE397BC01CD015F
:1034F000621B730B840B950B0E94B92320E030E014
:1035000048EC52E40E941824D6011C962D913D915E
:103510004D915C911F970E94072620E030E048EC17
:1035200052E40E940D251B012C01F401648775876C
:103530008687978720E030E048E452EC0E94B2236F
:10354000181694F420E030E048E452E4C201B101DE
:103550000E940327880F880BAA96FFADAA97F8232D
:10356000AA96FFAFAA9703C0AA961FAEAA9721E01A
:10357000621A710834E0C30ED11C44E0840E911C21
:103580006114710409F063CF68E771E080915D0414
:1035900090915E040E943516D5014D905D906D901E
:1035A0007D905D0100915D0410915E04A301920184
:1035B000C301B2010E94AA27882319F069ED71E0C6
:1035C0001AC073016201E894F7F82FEF3FEF4FE75D
:1035D0005FE7C701B6010E94AA27811110C02FEF33
:1035E0003FEF4FE75FE7C701B6010E94B22318160D
:1035F00034F46DED71E0C8010E94D71582C02FEF41
:103600003FEF4FE75FE4C301B2010E9403271816A2
:1036100054F02FEF3FEF4FE75FECC301B2010E9480
:10362000B22387FF03C061EE71E0E5CF20E030E018
:10363000A901C301B2010E94B22387FF0DC0D801C6
:10364000ED91FC910190F081E02D6DE2C8010995AA
:1036500077FA709477F870942AE037ED43EA5BE3E9
:10366000C301B2010E940E256B017C010E947926E4
:103670002B013C010E94B7239B01AC01C701B6019D
:103680000E940D256B017C012AE0B301A201C80153
:103690000E94EC15D801ED91FC910190F081E02D94
:1036A0006EE2C801099520E030E040E251E4C70134
:1036B000B6010E9418246B017C010E9479262B011F
:1036C000612C712C2AE0B301A201C8010E94EC1503
:1036D000C301B2010E94B7239B01AC01C701B6012F
:1036E0000E940D2520E030E040E251E40E941824C1
:1036F0000E947926AB0160E070E02AE0C8010E94D8
:10370000EC156DE571E0C8010E94D715A996EEADE4
:10371000FFADA997AE16BF0609F03ECF80915D04BC
:1037200090915E04AA96FFADAA97F11105C065EECF
:1037300071E00E943516C3C36BEF71E00E9435162D
:103740006DE072E080915D0490915E040E943516F8
:1037500040E86BE688E60E946F1464E670E080E063
:1037600090E00E94900341E06BE688E60E946F14AF
:1037700040E06CE688E60E946F1468EC70E080E040
:1037800090E00E94900340E068E388E60E946F1496
:1037900040E063E288E60E946F1440E06BE688E652
:1037A0000E946F1440E064E288E60E946F1440E0DB
:1037B0006AE688E60E946F1447E06AE688E60E949F
:1037C0006F146FE070E080E090E00E94900341E0B1
:1037D0006AE188E60E946F1440E069E188E60E9491
:1037E0006F1440E06BE188E60E946F1440E06CE1EA
:1037F00088E60E946F1440E46AE688E60E946F142F
:1038000048E763E288E60E946F1468E270E080E0B7
:1038100090E00E94900340E063E288E60E946F140B
:103820008E010F5F1F4F980142E062E788E60E9419
:10383000E305898190E0982F88272A81822B6CE00C
:1038400070E00E94BC285B01412C512C3201C12C3C
:10385000D12C7601AD961CAE1DAE1EAE1FAEAD973F
:10386000E9961CAE1DAE1EAE1FAEE997E5961CAEE6
:103870001DAE1EAE1FAEE597E1961CAE1DAE1EAE90
:103880001FAEE197812C912C8A149B0409F48EC001
:1038900098014CE064E788E60E94E305898190E0A6
:1038A000982F88272A81822B092E000CAA0BBB0B8C
:1038B000AD962CAD3DAD4EAD5FADAD97280F391F28
:1038C0004A1F5B1FAD962CAF3DAF4EAF5FAFAD97BC
:1038D0008B8190E0982F88272C81822B092E000C59
:1038E000AA0BBB0BC80ED91EEA1EFB1E8D8190E0F1
:1038F000982F88272E81822B092E000CAA0BBB0B38
:10390000480E591E6A1E7B1E8F8190E0982F8827D3
:103910002885822B092E000CAA0BBB0BE1962CAD3F
:103920003DAD4EAD5FADE197280F391F4A1F5B1FBC
:10393000E1962CAF3DAF4EAF5FAFE197898590E048
:10394000982F88272A85822B092E000CAA0BBB0BE7
:10395000E5962CAD3DAD4EAD5FADE597280F391F17
:103960004A1F5B1FE5962CAF3DAF4EAF5FAFE597AB
:103970008B8590E0982F88272C85822B092E000CB0
:10398000AA0BBB0BE9962CAD3DAD4EAD5FADE997F3
:10399000280F391F4A1F5B1FE9962CAF3DAF4EAF72
:1039A0005FAFE9973FEF831A930A6ECFA12CB12C3A
:1039B000AD966CAD7DAD8EAD9FADAD97A50194017B
:1039C0000E94F228ED962CAF3DAF4EAF5FAFED9762
:1039D000C701B601A50194010E94F228C358DF4F28
:1039E000288339834A835B83CD57D040C301B2011A
:1039F000A50194010E94F22869017A01E1966CAD5B
:103A00007DAD8EAD9FADE197A50194010E94F22896
:103A1000E1962CAF3DAF4EAF5FAFE197E5966CAD51
:103A20007DAD8EAD9FADE597A50194010E94F22872
:103A300029013A01E9966CAD7DAD8EAD9FADE99758
:103A4000A50194010E94F22849015A011C141D0489
:103A50001E041F0464F4D701C6019054A109B109E2
:103A6000AD968CAF9DAFAEAFBFAFAD970BC0A7010A
:103A70009601305C4F4F5F4FAD962CAF3DAF4EAFD0
:103A80005FAFAD9784E0C82ED12CE12CF12CE196EC
:103A90006CAD7DAD8EAD9FADE197A70196010E9403
:103AA000F22850954095309521953F4F4F4F5F4FED
:103AB000BB2757FDBA95A52F942F832FE5968CAF82
:103AC0009DAFAEAFBFAFE59789832A83C301B20133
:103AD000A70196010E94F2285095409530952195B6
:103AE0003F4F4F4F5F4F3B832C83C501B401A7016C
:103AF00096010E94F22850954095309521953F4FB0
:103B00004F4F5F4F3D832E83E2964FADE29763E1C7
:103B100088E60E946F144A8164E188E60E946F146F
:103B20004B8165E188E60E946F144C8166E188E66E
:103B30000E946F144D8167E188E60E946F144E81E8
:103B400068E188E60E946F14E1966CAD7DAD8EADA4
:103B50009FADE1970E94B9232FE632E143E053E4A1
:103B60000E94072660933F047093400480934104B1
:103B700090934204C301B2010E94B9232FE632E1BF
:103B800043E053E40E940726609343047093440487
:103B90008093450490934604C501B4010E94B92363
:103BA0002FE632E143E053E40E9407266093470486
:103BB000709348048093490490934A04ED966CAD49
:103BC0007DAD8EAD9FADED970E94B92320E030E032
:103BD00040E858E30E94182460934B0470934C040F
:103BE00080934D0490934E04C358DF4F68817981D0
:103BF0008A819B81CD57D0400E94B92320E030E0DC
:103C000040E858E30E94182460934F0470935004D6
:103C10008093510490935204AD966CAD7DAD8EAD02
:103C20009FADAD970E94B92320E030E040E858E313
:103C30000E94182460935304709354048093550495
:103C40009093560440E06BE688E60E946F1464E6A9
:103C500070E080E090E00E94900341E06BE688E62F
:103C60000E946F1468EC70E080E090E00E94900386
:103C700043E06AE188E60E946F1444E069E188E667
:103C80000E946F146BE188E60E942A06847E909160
:103C90009903A8E09A9F90011124482F422B6BE1D1
:103CA00088E60E946F146CE188E60E942A06877EEF
:103CB00090919A03B8E09B9F90011124482F422BCA
:103CC0006CE188E60E946F1443E06DE188E60E9493
:103CD0006F1442E267E388E60E946F1441E068E3F4
:103CE00088E60E946F1464E670E080E090E00E9435
:103CF00090036CE172E080915D0490915E040E94FB
:103D0000351640E06AE08CE00E946F146AE070E0D3
:103D100080E090E00E9490034FE06AE08CE00E9417
:103D20006F146AE070E080E090E00E9490039E01D2
:103D30002F5F3F4F43E060E18CE00E94E305698123
:103D400070E060587109072E000C880B990B0E94D7
:103D5000B92320E030E040E85BE30E94182420E033
:103D600030E040E85FE30E940E2560931B047093EF
:103D70001C0480931D0490931E046A8170E06058B7
:103D80007109072E000C880B990B0E94B92320E0C3
:103D900030E040E85BE30E94182420E030E040E897
:103DA0005FE30E940E2560931F04709320048093AC
:103DB0002104909322046B8170E060587109072EF2
:103DC000000C880B990B0E94B92320E030E040E8FA
:103DD0005BE30E94182420E030E040E85FE30E94AB
:103DE0000E256093230470932404809325049093FC
:103DF000260488E491EAABE0B3E48093270490932F
:103E00002804A0932904B0932A048AE097EDA1E145
:103E1000B3E480932B0490932C04A0932D04B093CF
:103E20002E048CE59FE2AEE8B3EC80932F049093D0
:103E30003004A0933104B09332048CEE91E5A8E7EE
:103E4000BFE38093330490933404A0933504B0937C
:103E500036048AE097EDA3E8BFE38093370490939C
:103E60003804A0933904B0933A0480E090E0A0E8CD
:103E7000BFE380933B0490933C04A0933D04B09334
:103E80003E0440E06AE08CE00E946F146AE070E05B
:103E900080E090E00E94900380919B03E0E18E9F80
:103EA000C001112440919C03482B6AE08CE00E94E1
:103EB0006F146AE070E080E090E00E9490030E943E
:103EC0004A060E944A062FB7F8948091800290918A
:103ED0008102A0918202B09183022FBF4091C3035F
:103EE0005091C4036091C5037091C603841B950B68
:103EF000A60BB70B8093BF039093C003A093C1039D
:103F0000B093C2034597A105B10508F4A2C0409142
:103F1000A1035091A2036091A3037091A40322E036
:103F2000CE0101960E948A1540919D0350919E03F7
:103F300060919F037091A00322E0CE0149960E94F8
:103F40008A154091A5035091A6036091A703709133
:103F5000A80322E0CE01CD960E948A151AAA19AABA
:103F60001CAA1BAA1EAA1DAA0DAD1EAD0115110586
:103F7000B9F02396EEACFFAC2397B701CE01C19602
:103F80000E945115811105C0CE01C1960E9478157D
:103F900007C0FEAAEDAAB80189A99AA90E941C2B04
:103FA000CE01C1960E94D4148C014D8D5E8D698D19
:103FB0007A8D0E94F814811103C0C8010E947815FF
:103FC000C8010E94D4148C014D815E8169817A817F
:103FD0000E94F814811103C0C8010E947815D8010D
:103FE00014964D915C9115976D917C9180EF92E0C4
:103FF0000E9426156DE571E080EF92E00E94D715D2
:1040000089A99AA90E94AC298DAD9EAD0E94AC29C8
:10401000898D9A8D0E94AC2989819A810E94AC2950
:104020006DE571E080EF92E00E94D7152FB7F8940C
:104030008091800290918102A0918202B0918302CE
:104040002FBF8093C3039093C403A093C503B09381
:10405000C60365E070E080E090E00E9490030E945B
:1040600046022FCFE0EFF2E01382128288EE93E057
:10407000A0E0B0E084839583A683B78326E131E096
:104080003183208325EC30E03587248724EC30E031
:104090003787268720EC30E0318B208B21EC30E015
:1040A000338B228B22EC30E0358B248B26EC30E0F6
:1040B000378B268B118E128E138E148E4EE057EC9A
:1040C0006AE17FE34093640450936504609366045F
:1040D000709367041092600410926104109262045D
:1040E00010926304EDE8F3E01382128284839583D7
:1040F000A683B78388E291E091838083E9E9F3E0C6
:104100001082118281E0828382E0838380E090E0EC
:10411000A0E8BFE3808B918BA28BB38B148A158AA6
:10412000168A178A108E118E128E138E148E158E8B
:10413000168E178E16A217A210A611A612A613A6E7
:1041400014A615A616A617A610AA11AA12AA13AA93
:1041500014AA15AA16AA17AA10AE11AE12AE13AE63
:1041600014AE15AE1092D7031092D8031092D90353
:104170001092DA031092DB031092DC031092DD033D
:104180001092DE0310921B0410921C0410921D0466
:1041900010921E0410921F04109220041092210409
:1041A00010922204109223041092240410922504E9
:1041B00010922604109227041092280410922904C9
:1041C00010922A0410922B0410922C0410922D04A9
:1041D00010922E0410922F04109230041092310489
:1041E000109232048CE0E6E0F1E0A3E3B4E0019049
:1041F0000D928A95E1F710923F04109240041092BC
:10420000410410924204109243041092440410920C
:1042100045041092460410924704109248041092EC
:10422000490410924A0410924B0410924C041092CC
:104230004D0410924E0410924F04109250041092AC
:10424000510410925204109253041092540410928C
:104250005504109256040895EF920F931F93CF9335
:10426000DF93E80147FD02C034E001C034E1E42FF0
:10427000440FFF0BF7FF03C0F195E195F109E32E21
:10428000022F2E2FAE010E944C21CE01DF91CF9143
:104290001F910F91EF9008954F925F926F927F92CE
:1042A0009F92AF92BF92CF92DF92EF92FF920F93C5
:1042B0001F93CF93DF93CDB7DEB729970FB6F8944E
:1042C000DEBF0FBECDBF6A01122FB02E2BE3201729
:1042D00020F0FF24F394F00E02C0BCE3FB2E0F2D60
:1042E00027E0AE014F5F5F4F0E94DA22AC01898167
:1042F000982F9970913031F0E1FC06C0E0FE06C0C5
:1043000090E205C09DE203C09BE201C090E0EE2D6B
:10431000E07183FF3CC0911102C083E001C084E0E2
:10432000811718F4212F281B01C020E0E1110BC0D8
:10433000F601822F30E2882319F031938150FBCFB0
:10434000C20ED11C20E0992329F0D6019C93F601DE
:1043500031966F01C6010396E2FE0AC03EE4D60123
:104360003C9341E411964C93119712963C9306C0EE
:104370003EE6F601308341E641833283FC01322F71
:1043800040E2332309F442C041933150FACF82FF17
:1043900044C0911102C083E001C084E0811718F489
:1043A000212F281B01C020E0E1110BC0F601822F54
:1043B00030E2882319F031938150FBCFC20ED11C1B
:1043C00020E0992329F0D6019C93F60131966F01E4
:1043D000C6010396E2FE0BC039E4D6013C933EE4ED
:1043E00011963C93119736E412963C9307C039E638
:1043F000F60130833EE6318336E63283FC01322F0C
:1044000040E2332319F041933150FBCFFC01E20F1E
:10441000F11D10828EEF9FEFB7C0F1E0911101C046
:10442000F0E06F2F70E01416150624F49A012F5F48
:104430003F4F02C021E030E0260F371FBB2029F09C
:104440006B2D70E06F5F7F4F02C060E070E0260F61
:10445000371F612F70E0261737071CF4121B212F1E
:1044600001C020E03E2D387159F4D601322F60E2B0
:10447000332319F06D933150FBCFC20ED11C20E0D5
:10448000FF2331F0D6019C93B6016F5F7F4F6B0124
:10449000E1110BC0F601922F30E3992319F031930B
:1044A0009150FBCFC20ED11C20E09F2D940F3A817A
:1044B000782F7071A72E84FF03C0313309F4915017
:1044C000191624F4993018F098E001C091E0E42F17
:1044D000852F57FF02C0E0E080E06E2F782FE0E0EC
:1044E000F0E0AEE29A2E3A01691A71082A01461AE2
:1044F000570A0B2D10E01195019511096F3F8FEFB1
:10450000780729F4D6019C92C60101966C014617E2
:10451000570784F0661677066CF47F01E40CF51CEF
:10452000A1E0B0E0AC0FBD1FEA0EFB1ED701119653
:10453000BC9002C090E3B92E615071093196C6015A
:1045400001967C016017710724F0D601BC926C01C2
:10455000D5CF6417750741F4363320F4353321F491
:10456000A11002C081E3B82EF601B082F701822FBC
:1045700090E2882319F091938150FBCFF701E20F6D
:10458000F11D108280E090E029960FB6F894DEBF0E
:104590000FBECDBFDF91CF911F910F91FF90EF9094
:1045A000DF90CF90BF90AF909F907F906F905F9083
:1045B0004F900895283008F027E03327DA01990F4B
:1045C000311D87FD916000966105710539F43260F7
:1045D0002E5F3D9330E32A95E1F708959F3F30F039
:1045E00080387105610509F03C5F3C5F3D93913077
:1045F00008F08068911DDF93CF931F930F93FF9274
:10460000EF92192F987F9695E92F96959695E90F39
:10461000FF27E255FE4F99273327EE24FF24A701F9
:10462000E70105900894079428F4360FE71EF81E5A
:10463000491F511D660F771F881F991F0694A1F708
:104640000590079428F4E70EF81E491F561FC11D58
:10465000770F881F991F661F0694A1F7059007948E
:1046600028F4F80E491F561FC71FD11D880F991F28
:10467000661F771F0694A1F70590079420F4490F51
:10468000561FC71FD81F990F661F771F881F0694D4
:10469000A9F784911095177041F0D695C795579555
:1046A0004795F794E7941A95C1F7E4E5F1E068942B
:1046B0001590159135916591959105907FE27395CF
:1046C000E118F10A430B560BC90BD009C0F7E10CF6
:1046D000F11E431F561FC91FD01D7EF4703311F405
:1046E0008A95E6CFE894015030F0080F0AF40027CD
:1046F000021708F4202F2395022F7A3328F079E34C
:104700007D932A95E9F710C07D932A9589F6069442
:1047100097956795379517951794E118F10A430B0C
:10472000560BC90BD00998F023957E9173957A3377
:1047300008F070E37C932013B8F77E9170617D934D
:1047400030F0839571E37D9370E32A95E1F71124AE
:10475000EF90FF900F911F91CF91DF91992787FDE7
:10476000909508950E94F42308F481E00895E89458
:1047700009C097FB3EF490958095709561957F4FA9
:104780008F4F9F4F9923A9F0F92F96E9BB27939557
:10479000F695879577956795B795F111F8CFFAF467
:1047A000BB0F11F460FF1BC06F5F7F4F8F4F9F4F98
:1047B00016C0882311F096E911C0772321F09EE8F6
:1047C000872F762F05C0662371F096E8862F70E05C
:1047D00060E02AF09A95660F771F881FDAF7880F36
:1047E0009695879597F90895990F0008550FAA0B8C
:1047F000E0E8FEEF16161706E807F907C0F01216F4
:104800001306E407F50798F0621B730B840B950BF6
:1048100039F40A2661F0232B242B252B21F408954B
:104820000A2609F4A140A6958FEF811D811D0895E8
:104830000E942B240C949C240E948E2438F00E9409
:10484000952420F0952311F00C9485240C948B244E
:1048500011240C94D0240E94AD2470F3959FC1F3D1
:10486000950F50E0551F629FF001729FBB27F00D1E
:10487000B11D639FAA27F00DB11DAA1F649F662773
:10488000B00DA11D661F829F2227B00DA11D621FC2
:10489000739FB00DA11D621F839FA00D611D221F7C
:1048A000749F3327A00D611D231F849F600D211D60
:1048B000822F762F6A2F11249F5750409AF0F1F0E3
:1048C00088234AF0EE0FFF1FBB1F661F771F881F4C
:1048D00091505040A9F79E3F510580F00C948524DB
:1048E0000C94D0245F3FE4F3983ED4F386957795FB
:1048F0006795B795F795E7959F5FC1F7FE2B880FF2
:10490000911D9695879597F9089597F99F6780E887
:1049100070E060E008959FEF80EC089500240A9411
:104920001616170618060906089500240A9412168A
:104930001306140605060895092E0394000C11F4BD
:10494000882352F0BB0F40F4BF2B11F460FF04C06A
:104950006F5F7F4F8F4F9F4F089557FD9058440FC3
:10496000551F59F05F3F71F04795880F97FB991FCE
:1049700061F09F3F79F0879508951216130614068B
:10498000551FF2CF4695F1DF08C016161706180618
:10499000991FF1CF86957105610508940895E894F3
:1049A000BB2766277727CB0197F908952F923F926F
:1049B0004F925F926F927F928F929F92AF92BF922F
:1049C000CF92DF92EF92FF920F931F93CF93DF93DB
:1049D000CDB7DEB7CA1BDB0B0FB6F894DEBF0FBE38
:1049E000CDBF09942A88398848885F846E847D8485
:1049F0008C849B84AA84B984C884DF80EE80FD8087
:104A00000C811B81AA81B981CE0FD11D0FB6F894FC
:104A1000DEBF0FBECDBFED0108955058BB27AA27BA
:104A20000E9425250C949C240E948E2438F00E941C
:104A3000952420F039F49F3F19F426F40C948B242C
:104A40000EF4E095E7FB0C948524E92F0E94AD2439
:104A500058F3BA17620773078407950720F079F4B3
:104A6000A6F50C94CF240EF4E0950B2EBA2FA02DB2
:104A70000B01B90190010C01CA01A0011124FF270B
:104A8000591B99F0593F50F4503E68F11A16F04006
:104A9000A22F232F342F4427585FF3CF4695379505
:104AA0002795A795F0405395C9F77EF41F16BA0BCA
:104AB000620B730B840BBAF09150A1F0FF0FBB1F78
:104AC000661F771F881FC2F70EC0BA0F621F731FC1
:104AD000841F48F4879577956795B795F7959E3F1E
:104AE00008F0B0CF9395880F08F09927EE0F9795AF
:104AF000879508959F939F77EEE389379E0728F463
:104B0000E8E6F0E00E94EF260CC00E94A82690582C
:104B1000A2EA2AED3FE049EC5FE30E9425250E94CE
:104B20009C240F9007FC905808950E948E2460F0FA
:104B300080E891E009F49EEF0E94952428F040E877
:104B400051E071F45EEF0CC00C948B240C94CF24D4
:104B5000E92FE0780E94AD2440F3092E052AB1F335
:104B6000261737074807590738F00E2E07F8E025B3
:104B700069F0E025E0640AC0EF6307F8009407FAE3
:104B8000DB01B9019D01DC01CA01AD01EF930E9477
:104B90001E260E949C240E94D8255F91552339F03F
:104BA0002BED3FE049E450FD49EC0C940E250895AF
:104BB000DF93DD27B92FBF7740E85FE316161706AE
:104BC00048075B0718F4D92F0E9408279F938F93FB
:104BD0007F936F930E94A627ECE7F0E00E94C8261F
:104BE0000E949C242F913F914F915F910E942B2412
:104BF000DD2351F09058A2EA2AED3FE049EC5FE353
:104C0000D0785D270E942525DF910C949C240E947A
:104C10001B260C949C240E94952458F00E948E24FC
:104C200040F029F45F3F29F00C94852451110C9435
:104C3000D0240C948B240E94AD2468F39923B1F303
:104C4000552391F3951B550BBB27AA2762177307B2
:104C5000840738F09F5F5F4F220F331F441FAA1F46
:104C6000A9F335D00E2E3AF0E0E832D09150504002
:104C7000E695001CCAF72BD0FE2F29D0660F771FB0
:104C8000881FBB1F261737074807AB07B0E809F096
:104C9000BB0B802DBF01FF2793585F4F3AF09E3F1B
:104CA000510578F00C9485240C94D0245F3FE4F3F4
:104CB000983ED4F3869577956795B795F7959F5F5E
:104CC000C9F7880F911D9695879597F90895E1E0AA
:104CD000660F771F881FBB1F621773078407BA0709
:104CE00020F0621B730B840BBA0BEE1F88F7E09564
:104CF00008950E94B52488F09F5798F0B92F9927FE
:104D0000B751B0F0E1F0660F771F881F991F1AF0B6
:104D1000BA95C9F714C0B13091F00E94CF24B1E028
:104D200008950C94CF24672F782F8827B85F39F027
:104D3000B93FCCF3869577956795B395D9F73EF44F
:104D400090958095709561957F4F8F4F9F4F0895F7
:104D5000DF93CF931F930F938B01EC01E9EAF0E00F
:104D60000E94C8260E949C249801AE018B01EC0190
:104D700060E070E080E89FE30E940D250E946627B6
:104D80009801AE010F911F91CF91DF910C942B24CC
:104D9000DF93CF931F930F93FF92EF92DF927B01EC
:104DA0008C01689406C0DA2EEF010E942B24FE01CC
:104DB000E894A5912591359145915591A6F3EF0180
:104DC0000E942525FE019701A801DA9469F7DF907A
:104DD000EF90FF900F911F91CF91DF9108959F93D6
:104DE0008F937F936F93FF93EF939B01AC010E948E
:104DF0001824EF91FF910E94C8262F913F914F9167
:104E00005F910C9418240E94F42308F48FEF089506
:104E10009B01AC0160E070E080E89FE30C94072602
:104E2000FA01EE0FFF1F309621053105A1F1611542
:104E3000710561F48038BFE39B0749F168949038AD
:104E4000810561F08038BFEF9B0741F099234AF557
:104E5000FF3FE1053105210519F1E8940894E79534
:104E6000D901AA2329F4AB2FBE2FF85FD0F310C0CD
:104E7000FF5F70F4A695E0F7F73950F019F0FF3AAC
:104E800038F49F779F930DD00F9007FC90580895AA
:104E900046F00C948B2460E070E080E89FE3089576
:104EA0004FE79F775F934F933F932F930E94402844
:104EB0002F913F914F915F910E9418240C94B72736
:104EC00019F416F40C948B240C94E9270E94B52451
:104ED000B8F39923C9F3B6F39F57550B87FF0E9488
:104EE000F7270024A0E640EA900180585695979550
:104EF00028F4805C660F771F881F20F0261737077D
:104F0000480730F4621B730B840B202931294A2B8C
:104F1000A69517940794202531254A2758F7660F40
:104F2000771F881F20F026173707480730F4620BD9
:104F3000730B840B200D311D411DA09581F7B90124
:104F4000842F9158880F9695879508959B01AC0101
:104F50000C9418240E94F423880B990B089529F4CB
:104F600016F00C9485240C94CF240C948B240E946E
:104F7000B524A8F39638A0F707F80F92E8942BE32E
:104F80003AEA48EB5FE70E942E240F920F920F92AD
:104F90004DB75EB70F920E948828E1EDF0E00E94C5
:104FA000C8264F915F91EF91FF91E595EE1FFF1F8E
:104FB00049F0FE57E0684427EE0F441FFA95E1F7E9
:104FC0004195550B0E9402280F9007FE0C9408276C
:104FD00008959F3F31F0915020F48795779567951C
:104FE000B795880F911D9695879597F908959150DB
:104FF0005040660F771F881FD2F708950C948524C0
:105000000C94E9270E94B524D8F39923C9F3940F8F
:10501000511DA3F39150504094F059F0882332F081
:10502000660F771F881F91505040C1F79E3F510572
:105030002CF7880F911D9695879597F908955F3FF6
:10504000ACF0983E9CF0BB27869577956795B79511
:1050500008F4B1609395C1F7BB0F58F711F460FFE6
:10506000E8CF6F5F7F4F8F4F9F4FE3CF0C94D024DB
:1050700016F00C94E9270C948B2468940C948524E6
:105080000E94B524A8F39923C1F3AEF3DF93CF9325
:105090001F930F93FF92C92FDD2788232AF02197B2
:1050A000660F771F881FDAF720E030E040E85FEBFB
:1050B0009FE3883920F0803E38F021968F770E9458
:1050C0000E25E9EFF0E004C00E940E25E6E2F1E0D3
:1050D0000E94C8268B01BE01EC01FB2E6F5771099F
:1050E0007595771F880B990B0E94B92328E132E749
:1050F00041E35FE30E942B24AF2D9801AE01FF90A6
:105100000F911F91CF91DF910E9425250C949C2433
:10511000FA01DC01AA0FBB1F9B01AC01BF5728F4A9
:10512000222733274427507820C0B75190F4AB2F63
:105130000024469537952795011CA395D2F30020AE
:1051400071F0220F331F441FB395DAF30ED00C9485
:105150000D2561307105A0E88A07B94630F49B013E
:10516000AC016627772788279078309621F0208336
:105170003183428353830895AA1BBB1B51E107C0AF
:10518000AA1FBB1FA617B70710F0A61BB70B881FD7
:10519000991F5A95A9F780959095BC01CD01089566
:1051A000A1E21A2EAA1BBB1BFD010DC0AA1FBB1F2B
:1051B000EE1FFF1FA217B307E407F50720F0A21B9D
:1051C000B30BE40BF50B661F771F881F991F1A940A
:1051D00069F760957095809590959B01AC01BD0134
:1051E000CF010895052E97FB1EF400940E94092913
:1051F00057FD07D00E94D02807FC03D04EF40C9432
:10520000092950954095309521953F4F4F4F5F4F5D
:10521000089590958095709561957F4F8F4F9F4F22
:105220000895EE0FFF1F0590F491E02D0994CF93A0
:10523000DF938230910510F482E090E0E0916A04FF
:10524000F0916B0420E030E0C0E0D0E0309711F145
:105250004081518148175907C0F04817590761F438
:1052600082819381209719F09B838A832BC090932E
:105270006B0480936A0426C02115310519F042178A
:10528000530718F49A01BE01DF01EF010280F38198
:10529000E02DDCCF2115310509F1281B390B243015
:1052A000310590F412968D919C91139761157105BB
:1052B00021F0FB019383828304C090936B0480935D
:1052C0006A04FD01329644C0FD01E20FF31F819391
:1052D0009193225031092D933C933AC02091680458
:1052E00030916904232B41F4209102013091030194
:1052F00030936904209368042091000130910101EA
:105300002115310541F42DB73EB74091040150916C
:105310000501241B350BE0916804F0916904E21744
:10532000F307A0F42E1B3F0B2817390778F0AC01C8
:105330004E5F5F4F2417350748F04E0F5F1F5093A5
:105340006904409368048193919302C0E0E0F0E027
:10535000CF01DF91CF9108950F931F93CF93DF93E8
:10536000009709F48CC0FC013297138212820091DD
:105370006A0410916B040115110581F420813181BB
:10538000820F931F20916804309169042817390710
:1053900079F5F0936904E093680471C0D80140E0A6
:1053A00050E0AE17BF0750F412962D913C91139721
:1053B000AD012115310509F1D901F3CF9D01DA01C4
:1053C0003383228360817181860F971F8217930731
:1053D00069F4EC0128813981260F371F2E5F3F4F7A
:1053E000318320838A819B8193838283452B29F497
:1053F000F0936B04E0936A0442C01396FC93EE931F
:105400001297ED01499159919E01240F351FE21722
:10541000F30771F480819181840F951F0296119694
:105420009C938E938281938113969C938E93129773
:10543000E0E0F0E0D80112968D919C9113970097CF
:1054400019F0F8018C01F6CF8D919C9198012E5F97
:105450003F4F820F931F20916804309169042817F1
:10546000390769F4309729F410926B0410926A049A
:1054700002C0138212821093690400936804DF91C2
:10548000CF911F910F910895A0E0B0E0EAE4FAE215
:105490000C94DA24EC01009721F4CB010E94172927
:1054A000B8C0FC01E60FF71F9C0122503109E2173A
:1054B000F30708F4ACC0D9010D911C9111970617A0
:1054C0001707B0F00530110508F49FC0C801049714
:1054D0008617970708F499C002501109061B170B8D
:1054E000019311936D937C93CF010E94AC298DC0E1
:1054F0005B01A01AB10A4C01800E911EA0916A04B2
:10550000B0916B0440E050E0E12CF12C109709F4CD
:105510004AC0A815B905D1F56D907C90119763012B
:1055200082E0C80ED11CCA14DB0480F1A3014A1921
:105530005B096A0182E0C80ED11C1296BC901297DA
:105540001396AC91B5E0CB16D10440F0B282A383A0
:1055500051834083D9016D937C930AC00E5F1F4F26
:10556000C301800F911FF90191838083EB2DFA2FE6
:10557000E114F10431F0D7011396FC93EE931297E6
:1055800044C0F0936B04E0936A043FC08D919C91FA
:1055900011974817590708F4AC017D0112960D9038
:1055A000BC91A02DB3CF80916804909169048815B7
:1055B0009905E1F446175707C8F4809100019091CE
:1055C0000101009741F48DB79EB7409104015091BD
:1055D0000501841B950BE817F907C8F4F0936904DB
:1055E000E0936804F901718360830FC0CB010E94CE
:1055F00017297C01009759F0A801BE010E94132BC6
:10560000CE010E94AC29C70104C0CE0102C080E0D7
:1056100090E0CDB7DEB7EEE00C94F62481E090E0A8
:10562000F8940C94232BFB01DC0102C001900D9235
:1056300041505040D8F70895FB01DC0101900D92D4
:0A5640000020E1F70895F894FFCF71
:10564A0000006C0480000000803F0000803F0000E2
:10565A00803F00000000DD01261575012402A60125
:10566A008401980100000000DE02AE020E038202ED
:10567A00A6029202830248656C6C6F00436F756CD8
:10568A0064206E6F7420636F6E6E65637420746F2E
:10569A00204D5055393235303A203078000D0A0005
:1056AA00506572666F726D696E672053656C66200D
:1056BA00746573742E2E2E0053656C6620746573A0
:1056CA0074206F7574207075742061732070657210
:1056DA0063656E7461676520646576696174696F74
:1056EA006E2066726F6D2074686520666163746FE0
:1056FA007279207472696D2076616C7565733A20CF
:10570A002841782C2041792C20417A2C2047782C6A
:10571A002047792C20477A29006E616E00696E66EF
:10572A00006F76660053656C662074657374206E2C
:10573A006F74207061737365642E0053656C662004
:10574A0074657374207061737365642E0043616CB1
:10575A006962726174696E672E2E2E004D5055393A
:10576A00323530206973206F6E6C696E652E2E2E6D
:04577A00002000000B
:00000001FF
